{
  "contractName": "Election",
  "abi": [
    {
      "inputs": [],
      "stateMutability": "nonpayable",
      "type": "constructor"
    },
    {
      "anonymous": false,
      "inputs": [
        {
          "indexed": true,
          "internalType": "uint256",
          "name": "_candidateId",
          "type": "uint256"
        }
      ],
      "name": "votedEvent",
      "type": "event"
    },
    {
      "inputs": [],
      "name": "candidateCount",
      "outputs": [
        {
          "internalType": "uint256",
          "name": "",
          "type": "uint256"
        }
      ],
      "stateMutability": "view",
      "type": "function",
      "constant": true
    },
    {
      "inputs": [
        {
          "internalType": "uint256",
          "name": "",
          "type": "uint256"
        }
      ],
      "name": "candidates",
      "outputs": [
        {
          "internalType": "uint256",
          "name": "id",
          "type": "uint256"
        },
        {
          "internalType": "string",
          "name": "name",
          "type": "string"
        },
        {
          "internalType": "uint256",
          "name": "votes",
          "type": "uint256"
        }
      ],
      "stateMutability": "view",
      "type": "function",
      "constant": true
    },
    {
      "inputs": [
        {
          "internalType": "address",
          "name": "",
          "type": "address"
        }
      ],
      "name": "voters",
      "outputs": [
        {
          "internalType": "bool",
          "name": "",
          "type": "bool"
        }
      ],
      "stateMutability": "view",
      "type": "function",
      "constant": true
    },
    {
      "inputs": [
        {
          "internalType": "uint256",
          "name": "_candidateId",
          "type": "uint256"
        }
      ],
      "name": "vote",
      "outputs": [],
      "stateMutability": "nonpayable",
      "type": "function"
    }
  ],
  "bytecode": "0x608060405234801561001057600080fd5b506100556040518060400160405280600b81526020017f43616e646964617465203100000000000000000000000000000000000000000081525061009e60201b60201c565b6100996040518060400160405280600b81526020017f43616e646964617465203200000000000000000000000000000000000000000081525061009e60201b60201c565b6102a6565b600260008154809291906100b1906101fc565b919050555060405180606001604052806002548152602001828152602001600081525060016000600254815260200190815260200160002060008201518160000155602082015181600101908051906020019061010f929190610120565b506040820151816002015590505050565b82805461012c90610274565b90600052602060002090601f01602090048101928261014e5760008555610195565b82601f1061016757805160ff1916838001178555610195565b82800160010185558215610195579182015b82811115610194578251825591602001919060010190610179565b5b5090506101a291906101a6565b5090565b5b808211156101bf5760008160009055506001016101a7565b5090565b7f4e487b7100000000000000000000000000000000000000000000000000000000600052601160045260246000fd5b6000819050919050565b6000610207826101f2565b91507fffffffffffffffffffffffffffffffffffffffffffffffffffffffffffffffff82141561023a576102396101c3565b5b600182019050919050565b7f4e487b7100000000000000000000000000000000000000000000000000000000600052602260045260246000fd5b6000600282049050600182168061028c57607f821691505b602082108114156102a05761029f610245565b5b50919050565b610622806102b56000396000f3fe608060405234801561001057600080fd5b506004361061004c5760003560e01c80630121b93f146100515780633477ee2e1461006d578063a3ec138d1461009f578063a9a981a3146100cf575b600080fd5b61006b60048036038101906100669190610324565b6100ed565b005b61008760048036038101906100829190610324565b610211565b604051610096939291906103f9565b60405180910390f35b6100b960048036038101906100b49190610495565b6102c3565b6040516100c691906104dd565b60405180910390f35b6100d76102e3565b6040516100e491906104f8565b60405180910390f35b6000803373ffffffffffffffffffffffffffffffffffffffff1673ffffffffffffffffffffffffffffffffffffffff16815260200190815260200160002060009054906101000a900460ff161561014357600080fd5b60008111801561015557506002548111155b61015e57600080fd5b60016000803373ffffffffffffffffffffffffffffffffffffffff1673ffffffffffffffffffffffffffffffffffffffff16815260200190815260200160002060006101000a81548160ff0219169083151502179055506001600082815260200190815260200160002060020160008154809291906101dc90610542565b9190505550807ffff3c900d938d21d0990d786e819f29b8d05c1ef587b462b939609625b684b1660405160405180910390a250565b600160205280600052604060002060009150905080600001549080600101805461023a906105ba565b80601f0160208091040260200160405190810160405280929190818152602001828054610266906105ba565b80156102b35780601f10610288576101008083540402835291602001916102b3565b820191906000526020600020905b81548152906001019060200180831161029657829003601f168201915b5050505050908060020154905083565b60006020528060005260406000206000915054906101000a900460ff1681565b60025481565b600080fd5b6000819050919050565b610301816102ee565b811461030c57600080fd5b50565b60008135905061031e816102f8565b92915050565b60006020828403121561033a576103396102e9565b5b60006103488482850161030f565b91505092915050565b61035a816102ee565b82525050565b600081519050919050565b600082825260208201905092915050565b60005b8381101561039a57808201518184015260208101905061037f565b838111156103a9576000848401525b50505050565b6000601f19601f8301169050919050565b60006103cb82610360565b6103d5818561036b565b93506103e581856020860161037c565b6103ee816103af565b840191505092915050565b600060608201905061040e6000830186610351565b818103602083015261042081856103c0565b905061042f6040830184610351565b949350505050565b600073ffffffffffffffffffffffffffffffffffffffff82169050919050565b600061046282610437565b9050919050565b61047281610457565b811461047d57600080fd5b50565b60008135905061048f81610469565b92915050565b6000602082840312156104ab576104aa6102e9565b5b60006104b984828501610480565b91505092915050565b60008115159050919050565b6104d7816104c2565b82525050565b60006020820190506104f260008301846104ce565b92915050565b600060208201905061050d6000830184610351565b92915050565b7f4e487b7100000000000000000000000000000000000000000000000000000000600052601160045260246000fd5b600061054d826102ee565b91507fffffffffffffffffffffffffffffffffffffffffffffffffffffffffffffffff8214156105805761057f610513565b5b600182019050919050565b7f4e487b7100000000000000000000000000000000000000000000000000000000600052602260045260246000fd5b600060028204905060018216806105d257607f821691505b602082108114156105e6576105e561058b565b5b5091905056fea2646970667358221220515c5809791b431d0266033991cf418eb928aa47c6d7301c838d1c0b778b225764736f6c634300080a0033",
  "immutableReferences": {},
  "source": "// SPDX-License-Identifier: MIT\npragma solidity ^0.8.10;\n\ncontract Election {\n    // Model a Candidate\n    struct Candidate {\n        uint id;\n        string name;\n        uint votes;\n    }\n\n    // Store addresses that have voted\n    mapping(address => bool) public voters;\n\n    // Store Candidates\n    // Fetch Candidate\n    mapping(uint => Candidate) public candidates; // Cannot be iterated, and has no way to determine the size\n\n    // Store Candidates count\n    uint public candidateCount;\n\n    // voted event\n    event votedEvent (\n        uint indexed _candidateId\n    );\n    \n    // Constructor\n    constructor () {\n        addCandidate(\"Candidate 1\");\n        addCandidate(\"Candidate 2\");\n    }\n\n    // No one else but the contract can add the candidates, make the function private\n    function addCandidate(string memory _name) private {\n        candidateCount++;\n        candidates[candidateCount] = Candidate(candidateCount, _name, 0);\n    }\n\n    function vote(uint _candidateId) public {\n        // Check if the sender has already voted\n        require(!voters[msg.sender]);\n\n        // Require a valid candidate is voted for\n        require(_candidateId > 0 && _candidateId <= candidateCount);\n\n        // record that sender has voted\n        voters[msg.sender] = true;\n\n        // Increment the candidate's vote count\n        candidates[_candidateId].votes++;\n\n        // trigger voted event\n        emit votedEvent(_candidateId);\n    }\n}",
  "sourcePath": "/Users/ankur/Projects/blockchain/election/contracts/Election.sol",
  "compiler": {
    "name": "solc",
    "version": "0.8.10+commit.fc410830.Emscripten.clang"
  },
  "schemaVersion": "3.4.4",
  "updatedAt": "2022-02-05T15:16:38.797Z",
  "networkType": "ethereum",
  "devdoc": {
    "kind": "dev",
    "methods": {},
    "version": 1
  },
  "userdoc": {
    "kind": "user",
    "methods": {},
    "version": 1
  }
}